{
  "contractName": "Escrow",
  "abi": [
    {
      "inputs": [
        {
          "internalType": "address",
          "name": "_inspector",
          "type": "address"
        }
      ],
      "stateMutability": "nonpayable",
      "type": "constructor"
    },
    {
      "anonymous": false,
      "inputs": [
        {
          "indexed": false,
          "internalType": "uint256",
          "name": "propId",
          "type": "uint256"
        },
        {
          "indexed": true,
          "internalType": "address",
          "name": "nft",
          "type": "address"
        },
        {
          "indexed": false,
          "internalType": "uint256",
          "name": "tokenId",
          "type": "uint256"
        },
        {
          "indexed": false,
          "internalType": "uint256",
          "name": "price",
          "type": "uint256"
        },
        {
          "indexed": true,
          "internalType": "address",
          "name": "seller",
          "type": "address"
        },
        {
          "indexed": true,
          "internalType": "address",
          "name": "buyer",
          "type": "address"
        }
      ],
      "name": "Bought",
      "type": "event"
    },
    {
      "anonymous": false,
      "inputs": [
        {
          "indexed": false,
          "internalType": "uint256",
          "name": "propId",
          "type": "uint256"
        },
        {
          "indexed": true,
          "internalType": "address",
          "name": "nft",
          "type": "address"
        },
        {
          "indexed": false,
          "internalType": "uint256",
          "name": "tokenId",
          "type": "uint256"
        },
        {
          "indexed": false,
          "internalType": "uint256",
          "name": "price",
          "type": "uint256"
        },
        {
          "indexed": true,
          "internalType": "address",
          "name": "seller",
          "type": "address"
        }
      ],
      "name": "Offered",
      "type": "event"
    },
    {
      "inputs": [],
      "name": "inspector",
      "outputs": [
        {
          "internalType": "address",
          "name": "",
          "type": "address"
        }
      ],
      "stateMutability": "view",
      "type": "function",
      "constant": true
    },
    {
      "inputs": [
        {
          "internalType": "uint256",
          "name": "",
          "type": "uint256"
        }
      ],
      "name": "props",
      "outputs": [
        {
          "internalType": "uint256",
          "name": "propertyId",
          "type": "uint256"
        },
        {
          "internalType": "contract IERC721",
          "name": "nft",
          "type": "address"
        },
        {
          "internalType": "uint256",
          "name": "tokenId",
          "type": "uint256"
        },
        {
          "internalType": "uint256",
          "name": "price",
          "type": "uint256"
        },
        {
          "internalType": "address payable",
          "name": "seller",
          "type": "address"
        },
        {
          "internalType": "address payable",
          "name": "buyer",
          "type": "address"
        },
        {
          "internalType": "bool",
          "name": "sold",
          "type": "bool"
        },
        {
          "components": [
            {
              "internalType": "bool",
              "name": "isListed",
              "type": "bool"
            },
            {
              "internalType": "bool",
              "name": "isInspected",
              "type": "bool"
            },
            {
              "internalType": "bool",
              "name": "finalApproval",
              "type": "bool"
            }
          ],
          "internalType": "struct Escrow.Property_info",
          "name": "propertyInfo",
          "type": "tuple"
        }
      ],
      "stateMutability": "view",
      "type": "function",
      "constant": true
    },
    {
      "stateMutability": "payable",
      "type": "receive",
      "payable": true
    },
    {
      "inputs": [
        {
          "internalType": "contract IERC721",
          "name": "_nft",
          "type": "address"
        },
        {
          "internalType": "uint256",
          "name": "_tokenId",
          "type": "uint256"
        },
        {
          "internalType": "uint256",
          "name": "_price",
          "type": "uint256"
        }
      ],
      "name": "makeItem",
      "outputs": [],
      "stateMutability": "nonpayable",
      "type": "function"
    },
    {
      "inputs": [
        {
          "internalType": "uint256",
          "name": "_propId",
          "type": "uint256"
        },
        {
          "internalType": "uint256",
          "name": "_newPrice",
          "type": "uint256"
        }
      ],
      "name": "nftTransferToContract",
      "outputs": [],
      "stateMutability": "nonpayable",
      "type": "function"
    },
    {
      "inputs": [
        {
          "internalType": "uint256",
          "name": "_propId",
          "type": "uint256"
        }
      ],
      "name": "listProperty",
      "outputs": [],
      "stateMutability": "nonpayable",
      "type": "function"
    },
    {
      "inputs": [],
      "name": "getItemCount",
      "outputs": [
        {
          "internalType": "uint256",
          "name": "",
          "type": "uint256"
        }
      ],
      "stateMutability": "view",
      "type": "function",
      "constant": true
    },
    {
      "inputs": [
        {
          "internalType": "uint256",
          "name": "_propId",
          "type": "uint256"
        }
      ],
      "name": "paymentEscrow",
      "outputs": [],
      "stateMutability": "payable",
      "type": "function",
      "payable": true
    },
    {
      "inputs": [
        {
          "internalType": "uint256",
          "name": "_propId",
          "type": "uint256"
        },
        {
          "internalType": "bool",
          "name": "_passed",
          "type": "bool"
        }
      ],
      "name": "updateInspectionStatus",
      "outputs": [],
      "stateMutability": "nonpayable",
      "type": "function"
    },
    {
      "inputs": [
        {
          "internalType": "uint256",
          "name": "_propId",
          "type": "uint256"
        }
      ],
      "name": "approveSale",
      "outputs": [],
      "stateMutability": "nonpayable",
      "type": "function"
    },
    {
      "inputs": [
        {
          "internalType": "uint256",
          "name": "_propId",
          "type": "uint256"
        }
      ],
      "name": "finalizeSale",
      "outputs": [],
      "stateMutability": "nonpayable",
      "type": "function"
    },
    {
      "inputs": [
        {
          "internalType": "uint256",
          "name": "_propId",
          "type": "uint256"
        }
      ],
      "name": "cancelSale",
      "outputs": [],
      "stateMutability": "nonpayable",
      "type": "function"
    },
    {
      "inputs": [
        {
          "internalType": "uint256",
          "name": "_propId",
          "type": "uint256"
        },
        {
          "internalType": "bool",
          "name": "_shouldList",
          "type": "bool"
        },
        {
          "internalType": "bool",
          "name": "_sold",
          "type": "bool"
        }
      ],
      "name": "resetDetails",
      "outputs": [],
      "stateMutability": "nonpayable",
      "type": "function"
    },
    {
      "inputs": [],
      "name": "getBalance",
      "outputs": [
        {
          "internalType": "uint256",
          "name": "",
          "type": "uint256"
        }
      ],
      "stateMutability": "view",
      "type": "function",
      "constant": true
    }
  ],
  "bytecode": "0x608060405234801561001057600080fd5b5060405161112f38038061112f83398101604081905261002f91610059565b6001600055600280546001600160a01b0319166001600160a01b0392909216919091179055610089565b60006020828403121561006b57600080fd5b81516001600160a01b038116811461008257600080fd5b9392505050565b611097806100986000396000f3fe6080604052600436106100c65760003560e01c8063aa9293801161007f578063ed2cee9e11610059578063ed2cee9e14610208578063fa00afc714610240578063fc1f8b3b14610260578063fda54c161461027357600080fd5b8063aa929380146101a8578063b6aee1cf146101c8578063bd94b005146101e857600080fd5b806312065fe0146100d257806314a72feb146100f45780631a3bb1a9146101335780637749cf231461015357806384d224ee146101685780639d0e5fd61461018857600080fd5b366100cd57005b600080fd5b3480156100de57600080fd5b50475b6040519081526020015b60405180910390f35b34801561010057600080fd5b5061013161010f366004610f0e565b6000908152600360205260409020600601805462ff0000191662010000179055565b005b34801561013f57600080fd5b5061013161014e366004610f27565b610383565b34801561015f57600080fd5b506100e1610581565b34801561017457600080fd5b50610131610183366004610f5e565b610591565b34801561019457600080fd5b506101316101a3366004610f9a565b61060f565b3480156101b457600080fd5b506101316101c3366004610f0e565b61069f565b3480156101d457600080fd5b506101316101e3366004610f0e565b610a15565b3480156101f457600080fd5b50610131610203366004610f0e565b610ac6565b34801561021457600080fd5b50600254610228906001600160a01b031681565b6040516001600160a01b0390911681526020016100eb565b34801561024c57600080fd5b5061013161025b366004610fdb565b610b68565b61013161026e366004610f0e565b610e6f565b34801561027f57600080fd5b5061031a61028e366004610f0e565b60036020818152600092835260409283902080546001820154600283015494830154600484015460058501548851606081018a5260069096015460ff8082161515885261010082048116151598880198909852620100009004871615159886019890985292966001600160a01b03928316969591949383169392811692600160a01b9091049091169088565b604080519889526001600160a01b039788166020808b01919091528982019790975260608901959095529286166080880152941660a086015292151560c08501528251151560e085015290820151151561010084015201511515610120820152610140016100eb565b61038b610eb5565b600081116103e05760405162461bcd60e51b815260206004820152601f60248201527f5072696365206d7573742062652067726561746572207468616e207a65726f0060448201526064015b60405180910390fd5b6000821180156103f257506001548211155b61040e5760405162461bcd60e51b81526004016103d790611010565b600082815260036020526040908190206001810154600282015492516331a9108f60e11b81526004810193909352909133916001600160a01b031690636352211e90602401602060405180830381865afa158015610470573d6000803e3d6000fd5b505050506040513d601f19601f82011682018060405250810190610494919061103d565b6001600160a01b0316146104ea5760405162461bcd60e51b815260206004820152601860248201527f596f7520646f6573206e6f74206f776e20746865204e4654000000000000000060448201526064016103d7565b60018101546003820183905560028201546040516323b872dd60e01b815233600482015230602482015260448101919091526001600160a01b039091169081906323b872dd90606401600060405180830381600087803b15801561054d57600080fd5b505af1158015610561573d6000803e3d6000fd5b5050505061057184600080610591565b505061057d6001600055565b5050565b600061058c60015490565b905090565b6000831180156105a357506001548311155b6105bf5760405162461bcd60e51b81526004016103d790611010565b6000928352600360205260409092206005810180546001600160a81b031916600160a01b94151594909402939093179092556006909101805462ffffff191691151562ffff001916919091179055565b6002546001600160a01b031633146106755760405162461bcd60e51b815260206004820152602360248201527f4f6e6c7920696e73706563746f722063616e2063616c6c2074686973206d65746044820152621a1bd960ea1b60648201526084016103d7565b60009182526003602052604090912060060180549115156101000261ff0019909216919091179055565b6106a7610eb5565b600081815260036020526040908190206001810154600282015492516331a9108f60e11b81526004810193909352909130916001600160a01b031690636352211e90602401602060405180830381865afa158015610709573d6000803e3d6000fd5b505050506040513d601f19601f8201168201806040525081019061072d919061103d565b6001600160a01b0316146107835760405162461bcd60e51b815260206004820152601d60248201527f436f6e747261637420646f6573206e6f74206f776e20746865204e465400000060448201526064016103d7565b6006810154610100900460ff1661079957600080fd5b600681015462010000900460ff166107b057600080fd5b6005810154600160a01b900460ff16156107fb5760405162461bcd60e51b815260206004820152600c60248201526b105b1c9958591e481cdbdb1960a21b60448201526064016103d7565b806003015447101561080c57600080fd5b600481015460038201546040516000926001600160a01b03169180156108fc029184818181858888f1935050505090508015610961576001820154600583015460028401546040516323b872dd60e01b81523060048201526001600160a01b039283166024820152604481019190915291169081906323b872dd90606401600060405180830381600087803b1580156108a457600080fd5b505af11580156108b8573d6000803e3d6000fd5b5050505060058301546004840154600185015460028601546003870154604080518a815260208101939093528201526001600160a01b039384169392831692909116907f8b4c9c8a607d67b321582dd8461041b1dc2ceeca70c8b7f37f8e02095cf2e76d9060600160405180910390a460058301546004840180546001600160a01b0319166001600160a01b0390921691909117905561095b8460006001610591565b50610a06565b600582015460038301546040516001600160a01b039092169181156108fc0291906000818181858888f193505050501580156109a1573d6000803e3d6000fd5b506109af8360016000610591565b60405162461bcd60e51b815260206004820152602660248201527f4661696c656420746f207472616e736665722066756e647320746f207468652060448201526539b2b63632b960d11b60648201526084016103d7565b5050610a126001600055565b50565b610a1d610eb5565b600081118015610a2f57506001548111155b610a4b5760405162461bcd60e51b81526004016103d790611010565b6000818152600360205260409020600681015460ff1615610a9f5760405162461bcd60e51b815260206004820152600e60248201526d105b1c9958591e48131a5cdd195960921b60448201526064016103d7565b60068101805460ff19166001179055600501805460ff60a01b19169055610a126001600055565b600081118015610ad857506001548111155b610af45760405162461bcd60e51b81526004016103d790611010565b600081815260036020526040902060068101805461ff00191690819055610100900460ff1615610b2357600080fd5b600581015460038201546040516001600160a01b039092169181156108fc0291906000818181858888f19350505050158015610b63573d6000803e3d6000fd5b505050565b610b70610eb5565b60008111610bc05760405162461bcd60e51b815260206004820152601f60248201527f5072696365206d7573742062652067726561746572207468616e207a65726f0060448201526064016103d7565b610bce600180546001019055565b6000610bd960015490565b6040516323b872dd60e01b8152336004820152306024820152604481018590529091506001600160a01b038516906323b872dd90606401600060405180830381600087803b158015610c2a57600080fd5b505af1158015610c3e573d6000803e3d6000fd5b50505050604051806101000160405280828152602001856001600160a01b03168152602001848152602001838152602001336001600160a01b0316815260200160006001600160a01b03168152602001600015158152602001604051806060016040528060001515815260200160001515815260200160001515815250815250600360008381526020019081526020016000206000820151816000015560208201518160010160006101000a8154816001600160a01b0302191690836001600160a01b03160217905550604082015181600201556060820151816003015560808201518160040160006101000a8154816001600160a01b0302191690836001600160a01b0316021790555060a08201518160050160006101000a8154816001600160a01b0302191690836001600160a01b0316021790555060c08201518160050160146101000a81548160ff02191690831515021790555060e08201518160060160008201518160000160006101000a81548160ff02191690831515021790555060208201518160000160016101000a81548160ff02191690831515021790555060408201518160000160026101000a81548160ff0219169083151502179055505050905050336001600160a01b0316846001600160a01b03167f655a0cf9c8db81512be9a76dc1c5ae5380b8816ce6ad659cd61b715e2999d59a838686604051610e5c939291909283526020830191909152604082015260600190565b60405180910390a350610b636001600055565b610e77610eb5565b600081815260036020819052604090912090810154341015610e9857600080fd5b60050180546001600160a01b03191633179055610a126001600055565b600260005403610f075760405162461bcd60e51b815260206004820152601f60248201527f5265656e7472616e637947756172643a207265656e7472616e742063616c6c0060448201526064016103d7565b6002600055565b600060208284031215610f2057600080fd5b5035919050565b60008060408385031215610f3a57600080fd5b50508035926020909101359150565b80358015158114610f5957600080fd5b919050565b600080600060608486031215610f7357600080fd5b83359250610f8360208501610f49565b9150610f9160408501610f49565b90509250925092565b60008060408385031215610fad57600080fd5b82359150610fbd60208401610f49565b90509250929050565b6001600160a01b0381168114610a1257600080fd5b600080600060608486031215610ff057600080fd5b8335610ffb81610fc6565b95602085013595506040909401359392505050565b602080825260139082015272125d195b48191bd95cc81b9bdd08195e1a5cdd606a1b604082015260600190565b60006020828403121561104f57600080fd5b815161105a81610fc6565b939250505056fea2646970667358221220f0962af5e47fe5443a843b0510b1342bd0aad5c29c6720c418e1e510a5991bf864736f6c634300080d0033",
  "immutableReferences": {},
  "source": "// SPDX-License-Identifier: MIT\npragma solidity ^0.8.0;\n\nimport \"@openzeppelin/contracts/token/ERC721/extensions/ERC721URIStorage.sol\";\nimport \"@openzeppelin/contracts/security/ReentrancyGuard.sol\";\nimport \"@openzeppelin/contracts/utils/Counters.sol\";\n\ncontract Escrow is ReentrancyGuard{\n    using Counters for Counters.Counter;\n    Counters.Counter private _propIds;\n    address public inspector;\n     \n    modifier onlyInspector() {\n        require(msg.sender == inspector, \"Only inspector can call this method\");\n        _;\n    }\n\n    struct Property{\n        uint propertyId;\n        IERC721 nft;\n        uint tokenId;\n        uint price;\n        address payable seller;\n        address payable buyer;\n        bool sold;\n        // Price propertyPrice;\n        Property_info propertyInfo;\n    }\n    struct Property_info {\n        bool isListed;\n        bool isInspected;\n        bool finalApproval;\n    }\n    // struct Price {\n    //     uint purchasePrice;\n    //     uint depositAmount;\n    //     uint totalAmount;\n    // }\n    mapping(uint => Property) public props;\n\n    event Offered (\n        uint propId,\n        address indexed nft,\n        uint tokenId,\n        uint price,\n        address indexed seller\n    );\n    event Bought(\n        uint propId,\n        address indexed nft,\n        uint tokenId,\n        uint price,\n        address indexed seller,\n        address indexed buyer\n    );\n\n    constructor( address _inspector ) {\n        inspector = _inspector;\n    }\n\n    function makeItem(IERC721 _nft, uint _tokenId, uint _price) external nonReentrant {\n        require(_price > 0, \"Price must be greater than zero\");\n        // increment itemCount\n        _propIds.increment();\n        uint256 currPropId = _propIds.current();\n        // transfer nft\n        _nft.transferFrom(msg.sender, address(this), _tokenId);\n        // add new property to Property mapping\n        props[currPropId] = Property (\n            currPropId, //propertyId\n            _nft, //nft address\n            _tokenId, //nft Id\n            _price,\n            payable(msg.sender), //seller\n            payable(address(0)), //buyer\n            false, //sold\n            // Price(_purchasePrice, _depositPrice, _purchasePrice+_depositPrice), // purchasePrice, depositPrice, totalPrice\n            Property_info(false, false, false) // isListed, isInspected, isApproved\n        );\n        //emit event\n        emit Offered(\n            currPropId,\n            address(_nft),\n            _tokenId,\n            _price,\n            msg.sender\n        );\n    }\n\n    function nftTransferToContract(uint _propId, uint _newPrice) external nonReentrant {\n        require(_newPrice > 0, \"Price must be greater than zero\");\n        require(_propId > 0 && _propId <= _propIds.current(), \"Item does not exist\");\n        Property storage prop = props[_propId];\n        require(prop.nft.ownerOf(prop.tokenId) == address(msg.sender), \"You does not own the NFT\");\n        IERC721 nft = prop.nft;\n        prop.price = _newPrice;\n        // transfer nft\n        nft.transferFrom(msg.sender, address(this), prop.tokenId);\n        resetDetails(_propId, false, false);\n        //call listProperty() after this fucntion in frontend \n    }\n\n    function listProperty(uint _propId) external nonReentrant{\n        require(_propId > 0 && _propId <= _propIds.current(), \"Item does not exist\");\n        Property storage prop = props[_propId];\n        require(!prop.propertyInfo.isListed, \"Already Listed\");\n        prop.propertyInfo.isListed = true;\n        prop.sold = false;\n    }\n\n    function getItemCount() public view returns (uint256) {\n        return _propIds.current();\n    }\n\n    // Put Under Contract (only buyer - payable escrow)\n    // function depositEarnest(uint256 _nftID) public payable nonReentrant(_nftID) {\n    //     require(msg.value >= escrowAmount[_nftID]);\n    // }\n\n    function paymentEscrow(uint256 _propId) external payable nonReentrant {\n        Property storage prop = props[_propId];\n        require(msg.value >= prop.price);\n        prop.buyer = payable(msg.sender);\n    }\n\n    // Update Inspection Status (only inspector)\n    function updateInspectionStatus(uint256 _propId, bool _passed)\n        public\n        onlyInspector\n    {\n        Property storage prop = props[_propId];\n        prop.propertyInfo.isInspected = _passed;\n    }\n\n    // Approve Sale\n    function approveSale(uint256 _propId) public {\n        Property storage prop = props[_propId];\n        prop.propertyInfo.finalApproval = true;\n    }\n\n    // Finalize Sale\n    // -> Require inspection status (add more items here, like appraisal)\n    // -> Require sale to be authorized\n    // -> Require funds to be correct amount\n    // -> Transfer NFT to buyer\n    // -> Transfer Funds to Seller\n    function finalizeSale(uint256 _propId) external nonReentrant {\n        Property storage prop = props[_propId];\n        require(prop.nft.ownerOf(prop.tokenId) == address(this), \"Contract does not own the NFT\");\n        require(prop.propertyInfo.isInspected);\n        require(prop.propertyInfo.finalApproval);\n        require(!prop.sold, \"Already sold\");\n        require(address(this).balance >= prop.price);\n\n        // prop.propertyInfo.isListed = false;\n        // transfer payment to the seller\n        bool success = payable(prop.seller).send(prop.price);\n        if(success) {\n            // transfer the NFT to the buyer\n            IERC721 nft = prop.nft;\n            nft.transferFrom(address(this), address(prop.buyer), prop.tokenId);\n            emit Bought(_propId, address(prop.nft), prop.tokenId, prop.price, prop.seller, prop.buyer);\n            prop.seller = payable(prop.buyer);\n            resetDetails(_propId, false, true); // _propId, _shouldList, _sold\n        } \n        else {\n            payable(prop.buyer).transfer(prop.price);\n            resetDetails(_propId, true, false); // _propId, _shouldList, _sold\n            revert(\"Failed to transfer funds to the seller\");\n        }\n    }\n\n    // Cancel Sale (handle earnest deposit)\n    // -> if inspection status is not approved, then refund, otherwise send to seller\n    function cancelSale(uint256 _propId) public {\n        require(_propId > 0 && _propId <= _propIds.current(), \"Item does not exist\");\n        Property storage prop = props[_propId];\n        prop.propertyInfo.isInspected = false;\n        require(prop.propertyInfo.isInspected == false);\n        payable(prop.buyer).transfer(prop.price);\n    }\n\n    function resetDetails(uint256 _propId, bool _shouldList, bool _sold) public {\n        require(_propId > 0 && _propId <= _propIds.current(), \"Item does not exist\");\n        Property storage prop = props[_propId];\n        prop.buyer = payable(address(0));\n        prop.sold = _sold;\n        prop.propertyInfo.isListed = _shouldList;\n        prop.propertyInfo.isInspected = false;\n        prop.propertyInfo.finalApproval = false;\n    }\n\n    receive() external payable {}\n\n    function getBalance() public view returns (uint256) {\n        return address(this).balance;\n    }\n}",
  "sourcePath": "C:\\Users\\Umair\\Downloads\\my-realEstate-dapp-main\\pages\\contracts\\Escrow.sol",
  "compiler": {
    "name": "solc",
    "version": "0.8.13+commit.abaa5c0e.Emscripten.clang"
  },
  "schemaVersion": "3.4.16",
  "updatedAt": "2024-03-17T02:24:56.656Z",
  "networkType": "ethereum",
  "devdoc": {
    "kind": "dev",
    "methods": {},
    "version": 1
  },
  "userdoc": {
    "kind": "user",
    "methods": {},
    "version": 1
  }
}