{
  "contractName": "HashStorage",
  "abi": [
    {
      "inputs": [
        {
          "internalType": "string",
          "name": "_hashKey",
          "type": "string"
        }
      ],
      "name": "storeHashKey",
      "outputs": [],
      "stateMutability": "nonpayable",
      "type": "function"
    },
    {
      "inputs": [
        {
          "internalType": "string",
          "name": "_hashKey",
          "type": "string"
        }
      ],
      "name": "isStored",
      "outputs": [
        {
          "internalType": "bool",
          "name": "",
          "type": "bool"
        }
      ],
      "stateMutability": "view",
      "type": "function",
      "constant": true
    }
  ],
  "bytecode": "0x608060405234801561001057600080fd5b5061035a806100206000396000f3fe608060405234801561001057600080fd5b50600436106100365760003560e01c8063856521361461003b578063d21d4f5c14610062575b600080fd5b61004e6100493660046101fe565b610077565b604051901515815260200160405180910390f35b6100756100703660046101fe565b6100ad565b005b60008060008360405161008a91906102af565b908152602001604051809103902080546100a3906102ea565b9050119050919050565b6000816040516100bd91906102af565b908152602001604051809103902080546100d6906102ea565b1590506101195760405162461bcd60e51b815260206004820152600d60248201526c105b1c9958591e48115e1a5cdd609a1b604482015260640160405180910390fd5b8060008260405161012a91906102af565b9081526020016040518091039020908051906020019061014b92919061014f565b5050565b82805461015b906102ea565b90600052602060002090601f01602090048101928261017d57600085556101c3565b82601f1061019657805160ff19168380011785556101c3565b828001600101855582156101c3579182015b828111156101c35782518255916020019190600101906101a8565b506101cf9291506101d3565b5090565b5b808211156101cf57600081556001016101d4565b634e487b7160e01b600052604160045260246000fd5b60006020828403121561021057600080fd5b813567ffffffffffffffff8082111561022857600080fd5b818401915084601f83011261023c57600080fd5b81358181111561024e5761024e6101e8565b604051601f8201601f19908116603f01168101908382118183101715610276576102766101e8565b8160405282815287602084870101111561028f57600080fd5b826020860160208301376000928101602001929092525095945050505050565b6000825160005b818110156102d057602081860181015185830152016102b6565b818111156102df576000828501525b509190910192915050565b600181811c908216806102fe57607f821691505b60208210810361031e57634e487b7160e01b600052602260045260246000fd5b5091905056fea26469706673582212201feb6a9f14eb9e6c1599c77b256a2a4497e5d8e5b563ed06a01514ec0c8d884164736f6c634300080d0033",
  "immutableReferences": {},
  "source": "// SPDX-License-Identifier: MIT\r\npragma solidity ^0.8.0;\r\n\r\ncontract HashStorage {\r\n    mapping(string => string) private hashKeys;\r\n\r\n    function storeHashKey(string memory _hashKey) public {\r\n        require(bytes(hashKeys[_hashKey]).length == 0, \"Already Exist\");\r\n        hashKeys[_hashKey] = _hashKey;\r\n    }\r\n\r\n    function isStored(string memory _hashKey) public view returns (bool) {\r\n        return bytes(hashKeys[_hashKey]).length > 0;\r\n    }\r\n}",
  "sourcePath": "C:\\Users\\Umair\\Downloads\\my-realEstate-dapp-main\\pages\\contracts\\HashStorage.sol",
  "compiler": {
    "name": "solc",
    "version": "0.8.13+commit.abaa5c0e.Emscripten.clang"
  },
  "schemaVersion": "3.4.16",
  "updatedAt": "2024-03-17T02:24:57.242Z",
  "networkType": "ethereum",
  "devdoc": {
    "kind": "dev",
    "methods": {},
    "version": 1
  },
  "userdoc": {
    "kind": "user",
    "methods": {},
    "version": 1
  }
}