{
  "contractName": "RealEstate",
  "abi": [
    {
      "inputs": [],
      "stateMutability": "nonpayable",
      "type": "constructor"
    },
    {
      "anonymous": false,
      "inputs": [
        {
          "indexed": true,
          "internalType": "address",
          "name": "owner",
          "type": "address"
        },
        {
          "indexed": true,
          "internalType": "address",
          "name": "approved",
          "type": "address"
        },
        {
          "indexed": true,
          "internalType": "uint256",
          "name": "tokenId",
          "type": "uint256"
        }
      ],
      "name": "Approval",
      "type": "event"
    },
    {
      "anonymous": false,
      "inputs": [
        {
          "indexed": true,
          "internalType": "address",
          "name": "owner",
          "type": "address"
        },
        {
          "indexed": true,
          "internalType": "address",
          "name": "operator",
          "type": "address"
        },
        {
          "indexed": false,
          "internalType": "bool",
          "name": "approved",
          "type": "bool"
        }
      ],
      "name": "ApprovalForAll",
      "type": "event"
    },
    {
      "anonymous": false,
      "inputs": [
        {
          "indexed": false,
          "internalType": "uint256",
          "name": "_fromTokenId",
          "type": "uint256"
        },
        {
          "indexed": false,
          "internalType": "uint256",
          "name": "_toTokenId",
          "type": "uint256"
        }
      ],
      "name": "BatchMetadataUpdate",
      "type": "event"
    },
    {
      "anonymous": false,
      "inputs": [
        {
          "indexed": false,
          "internalType": "uint256",
          "name": "_tokenId",
          "type": "uint256"
        }
      ],
      "name": "MetadataUpdate",
      "type": "event"
    },
    {
      "anonymous": false,
      "inputs": [
        {
          "indexed": true,
          "internalType": "address",
          "name": "from",
          "type": "address"
        },
        {
          "indexed": true,
          "internalType": "address",
          "name": "to",
          "type": "address"
        },
        {
          "indexed": true,
          "internalType": "uint256",
          "name": "tokenId",
          "type": "uint256"
        }
      ],
      "name": "Transfer",
      "type": "event"
    },
    {
      "inputs": [
        {
          "internalType": "address",
          "name": "to",
          "type": "address"
        },
        {
          "internalType": "uint256",
          "name": "tokenId",
          "type": "uint256"
        }
      ],
      "name": "approve",
      "outputs": [],
      "stateMutability": "nonpayable",
      "type": "function"
    },
    {
      "inputs": [
        {
          "internalType": "address",
          "name": "owner",
          "type": "address"
        }
      ],
      "name": "balanceOf",
      "outputs": [
        {
          "internalType": "uint256",
          "name": "",
          "type": "uint256"
        }
      ],
      "stateMutability": "view",
      "type": "function",
      "constant": true
    },
    {
      "inputs": [
        {
          "internalType": "uint256",
          "name": "tokenId",
          "type": "uint256"
        }
      ],
      "name": "getApproved",
      "outputs": [
        {
          "internalType": "address",
          "name": "",
          "type": "address"
        }
      ],
      "stateMutability": "view",
      "type": "function",
      "constant": true
    },
    {
      "inputs": [
        {
          "internalType": "address",
          "name": "owner",
          "type": "address"
        },
        {
          "internalType": "address",
          "name": "operator",
          "type": "address"
        }
      ],
      "name": "isApprovedForAll",
      "outputs": [
        {
          "internalType": "bool",
          "name": "",
          "type": "bool"
        }
      ],
      "stateMutability": "view",
      "type": "function",
      "constant": true
    },
    {
      "inputs": [],
      "name": "name",
      "outputs": [
        {
          "internalType": "string",
          "name": "",
          "type": "string"
        }
      ],
      "stateMutability": "view",
      "type": "function",
      "constant": true
    },
    {
      "inputs": [
        {
          "internalType": "uint256",
          "name": "tokenId",
          "type": "uint256"
        }
      ],
      "name": "ownerOf",
      "outputs": [
        {
          "internalType": "address",
          "name": "",
          "type": "address"
        }
      ],
      "stateMutability": "view",
      "type": "function",
      "constant": true
    },
    {
      "inputs": [
        {
          "internalType": "address",
          "name": "from",
          "type": "address"
        },
        {
          "internalType": "address",
          "name": "to",
          "type": "address"
        },
        {
          "internalType": "uint256",
          "name": "tokenId",
          "type": "uint256"
        }
      ],
      "name": "safeTransferFrom",
      "outputs": [],
      "stateMutability": "nonpayable",
      "type": "function"
    },
    {
      "inputs": [
        {
          "internalType": "address",
          "name": "from",
          "type": "address"
        },
        {
          "internalType": "address",
          "name": "to",
          "type": "address"
        },
        {
          "internalType": "uint256",
          "name": "tokenId",
          "type": "uint256"
        },
        {
          "internalType": "bytes",
          "name": "data",
          "type": "bytes"
        }
      ],
      "name": "safeTransferFrom",
      "outputs": [],
      "stateMutability": "nonpayable",
      "type": "function"
    },
    {
      "inputs": [
        {
          "internalType": "address",
          "name": "operator",
          "type": "address"
        },
        {
          "internalType": "bool",
          "name": "approved",
          "type": "bool"
        }
      ],
      "name": "setApprovalForAll",
      "outputs": [],
      "stateMutability": "nonpayable",
      "type": "function"
    },
    {
      "inputs": [
        {
          "internalType": "bytes4",
          "name": "interfaceId",
          "type": "bytes4"
        }
      ],
      "name": "supportsInterface",
      "outputs": [
        {
          "internalType": "bool",
          "name": "",
          "type": "bool"
        }
      ],
      "stateMutability": "view",
      "type": "function",
      "constant": true
    },
    {
      "inputs": [],
      "name": "symbol",
      "outputs": [
        {
          "internalType": "string",
          "name": "",
          "type": "string"
        }
      ],
      "stateMutability": "view",
      "type": "function",
      "constant": true
    },
    {
      "inputs": [
        {
          "internalType": "uint256",
          "name": "tokenId",
          "type": "uint256"
        }
      ],
      "name": "tokenURI",
      "outputs": [
        {
          "internalType": "string",
          "name": "",
          "type": "string"
        }
      ],
      "stateMutability": "view",
      "type": "function",
      "constant": true
    },
    {
      "inputs": [
        {
          "internalType": "address",
          "name": "from",
          "type": "address"
        },
        {
          "internalType": "address",
          "name": "to",
          "type": "address"
        },
        {
          "internalType": "uint256",
          "name": "tokenId",
          "type": "uint256"
        }
      ],
      "name": "transferFrom",
      "outputs": [],
      "stateMutability": "nonpayable",
      "type": "function"
    },
    {
      "inputs": [
        {
          "internalType": "string",
          "name": "tokenURI",
          "type": "string"
        }
      ],
      "name": "mint",
      "outputs": [
        {
          "internalType": "uint256",
          "name": "",
          "type": "uint256"
        }
      ],
      "stateMutability": "nonpayable",
      "type": "function"
    },
    {
      "inputs": [],
      "name": "getTokenCount",
      "outputs": [
        {
          "internalType": "uint256",
          "name": "",
          "type": "uint256"
        }
      ],
      "stateMutability": "view",
      "type": "function",
      "constant": true
    }
  ],
  "bytecode": "0x60806040523480156200001157600080fd5b50604080518082018252600b81526a5265616c2045737461746560a81b6020808301918252835180850190945260038452621154d560ea1b90840152815191929162000060916000916200007f565b508051620000769060019060208401906200007f565b50505062000161565b8280546200008d9062000125565b90600052602060002090601f016020900481019282620000b15760008555620000fc565b82601f10620000cc57805160ff1916838001178555620000fc565b82800160010185558215620000fc579182015b82811115620000fc578251825591602001919060010190620000df565b506200010a9291506200010e565b5090565b5b808211156200010a57600081556001016200010f565b600181811c908216806200013a57607f821691505b6020821081036200015b57634e487b7160e01b600052602260045260246000fd5b50919050565b61165780620001716000396000f3fe608060405234801561001057600080fd5b50600436106100f55760003560e01c806370a0823111610097578063b88d4fde11610066578063b88d4fde146101f4578063c87b56dd14610207578063d85d3d271461021a578063e985e9c51461022d57600080fd5b806370a08231146101b057806378a89567146101d157806395d89b41146101d9578063a22cb465146101e157600080fd5b8063095ea7b3116100d3578063095ea7b31461016257806323b872dd1461017757806342842e0e1461018a5780636352211e1461019d57600080fd5b806301ffc9a7146100fa57806306fdde0314610122578063081812fc14610137575b600080fd5b61010d61010836600461117c565b610269565b60405190151581526020015b60405180910390f35b61012a610294565b60405161011991906111f1565b61014a610145366004611204565b610326565b6040516001600160a01b039091168152602001610119565b610175610170366004611239565b61034d565b005b610175610185366004611263565b610467565b610175610198366004611263565b610498565b61014a6101ab366004611204565b6104b3565b6101c36101be36600461129f565b610513565b604051908152602001610119565b6101c3610599565b61012a6105a9565b6101756101ef3660046112ba565b6105b8565b610175610202366004611382565b6105c7565b61012a610215366004611204565b6105ff565b6101c36102283660046113fe565b61070f565b61010d61023b366004611447565b6001600160a01b03918216600090815260056020908152604080832093909416825291909152205460ff1690565b60006001600160e01b03198216632483248360e11b148061028e575061028e82610740565b92915050565b6060600080546102a39061147a565b80601f01602080910402602001604051908101604052809291908181526020018280546102cf9061147a565b801561031c5780601f106102f15761010080835404028352916020019161031c565b820191906000526020600020905b8154815290600101906020018083116102ff57829003601f168201915b5050505050905090565b600061033182610790565b506000908152600460205260409020546001600160a01b031690565b6000610358826104b3565b9050806001600160a01b0316836001600160a01b0316036103ca5760405162461bcd60e51b815260206004820152602160248201527f4552433732313a20617070726f76616c20746f2063757272656e74206f776e656044820152603960f91b60648201526084015b60405180910390fd5b336001600160a01b03821614806103e657506103e6813361023b565b6104585760405162461bcd60e51b815260206004820152603d60248201527f4552433732313a20617070726f76652063616c6c6572206973206e6f7420746f60448201527f6b656e206f776e6572206f7220617070726f76656420666f7220616c6c00000060648201526084016103c1565b61046283836107f2565b505050565b6104713382610860565b61048d5760405162461bcd60e51b81526004016103c1906114b4565b6104628383836108de565b610462838383604051806020016040528060008152506105c7565b6000818152600260205260408120546001600160a01b03168061028e5760405162461bcd60e51b8152602060048201526018602482015277115490cdcc8c4e881a5b9d985b1a59081d1bdad95b88125160421b60448201526064016103c1565b60006001600160a01b03821661057d5760405162461bcd60e51b815260206004820152602960248201527f4552433732313a2061646472657373207a65726f206973206e6f7420612076616044820152683634b21037bbb732b960b91b60648201526084016103c1565b506001600160a01b031660009081526003602052604090205490565b60006105a460075490565b905090565b6060600180546102a39061147a565b6105c3338383610a42565b5050565b6105d13383610860565b6105ed5760405162461bcd60e51b81526004016103c1906114b4565b6105f984848484610b10565b50505050565b606061060a82610790565b600082815260066020526040812080546106239061147a565b80601f016020809104026020016040519081016040528092919081815260200182805461064f9061147a565b801561069c5780601f106106715761010080835404028352916020019161069c565b820191906000526020600020905b81548152906001019060200180831161067f57829003601f168201915b5050505050905060006106ba60408051602081019091526000815290565b905080516000036106cc575092915050565b8151156106fe5780826040516020016106e6929190611501565b60405160208183030381529060405292505050919050565b61070784610b43565b949350505050565b600061071f600780546001019055565b600061072a60075490565b90506107363382610bb7565b61028e8184610bd1565b60006001600160e01b031982166380ac58cd60e01b148061077157506001600160e01b03198216635b5e139f60e01b145b8061028e57506301ffc9a760e01b6001600160e01b031983161461028e565b6000818152600260205260409020546001600160a01b03166107ef5760405162461bcd60e51b8152602060048201526018602482015277115490cdcc8c4e881a5b9d985b1a59081d1bdad95b88125160421b60448201526064016103c1565b50565b600081815260046020526040902080546001600160a01b0319166001600160a01b0384169081179091558190610827826104b3565b6001600160a01b03167f8c5be1e5ebec7d5bd14f71427d1e84f3dd0314c0f7b2291e5b200ac8c7c3b92560405160405180910390a45050565b60008061086c836104b3565b9050806001600160a01b0316846001600160a01b031614806108b357506001600160a01b0380821660009081526005602090815260408083209388168352929052205460ff165b806107075750836001600160a01b03166108cc84610326565b6001600160a01b031614949350505050565b826001600160a01b03166108f1826104b3565b6001600160a01b0316146109175760405162461bcd60e51b81526004016103c190611530565b6001600160a01b0382166109795760405162461bcd60e51b8152602060048201526024808201527f4552433732313a207472616e7366657220746f20746865207a65726f206164646044820152637265737360e01b60648201526084016103c1565b826001600160a01b031661098c826104b3565b6001600160a01b0316146109b25760405162461bcd60e51b81526004016103c190611530565b600081815260046020908152604080832080546001600160a01b03199081169091556001600160a01b0387811680865260038552838620805460001901905590871680865283862080546001019055868652600290945282852080549092168417909155905184937fddf252ad1be2c89b69c2b068fc378daa952ba7f163c4a11628f55a4df523b3ef91a4505050565b816001600160a01b0316836001600160a01b031603610aa35760405162461bcd60e51b815260206004820152601960248201527f4552433732313a20617070726f766520746f2063616c6c65720000000000000060448201526064016103c1565b6001600160a01b03838116600081815260056020908152604080832094871680845294825291829020805460ff191686151590811790915591519182527f17307eab39ab6107e8899845ad3d59bd9653f200f220920489ca2b5937696c31910160405180910390a3505050565b610b1b8484846108de565b610b2784848484610ca3565b6105f95760405162461bcd60e51b81526004016103c190611575565b6060610b4e82610790565b6000610b6560408051602081019091526000815290565b90506000815111610b855760405180602001604052806000815250610bb0565b80610b8f84610da4565b604051602001610ba0929190611501565b6040516020818303038152906040525b9392505050565b6105c3828260405180602001604052806000815250610e37565b6000828152600260205260409020546001600160a01b0316610c4c5760405162461bcd60e51b815260206004820152602e60248201527f45524337323155524953746f726167653a2055524920736574206f66206e6f6e60448201526d32bc34b9ba32b73a103a37b5b2b760911b60648201526084016103c1565b60008281526006602090815260409091208251610c6b928401906110cd565b506040518281527ff8e1a15aba9398e019f0b49df1a4fde98ee17ae345cb5f6b5e2c27f5033e8ce79060200160405180910390a15050565b60006001600160a01b0384163b15610d9957604051630a85bd0160e11b81526001600160a01b0385169063150b7a0290610ce79033908990889088906004016115c7565b6020604051808303816000875af1925050508015610d22575060408051601f3d908101601f19168201909252610d1f91810190611604565b60015b610d7f573d808015610d50576040519150601f19603f3d011682016040523d82523d6000602084013e610d55565b606091505b508051600003610d775760405162461bcd60e51b81526004016103c190611575565b805181602001fd5b6001600160e01b031916630a85bd0160e11b149050610707565b506001949350505050565b60606000610db183610e6a565b600101905060008167ffffffffffffffff811115610dd157610dd16112f6565b6040519080825280601f01601f191660200182016040528015610dfb576020820181803683370190505b5090508181016020015b600019016f181899199a1a9b1b9c1cb0b131b232b360811b600a86061a8153600a8504945084610e0557509392505050565b610e418383610f42565b610e4e6000848484610ca3565b6104625760405162461bcd60e51b81526004016103c190611575565b60008072184f03e93ff9f4daa797ed6e38ed64bf6a1f0160401b8310610ea95772184f03e93ff9f4daa797ed6e38ed64bf6a1f0160401b830492506040015b6d04ee2d6d415b85acef81000000008310610ed5576d04ee2d6d415b85acef8100000000830492506020015b662386f26fc100008310610ef357662386f26fc10000830492506010015b6305f5e1008310610f0b576305f5e100830492506008015b6127108310610f1f57612710830492506004015b60648310610f31576064830492506002015b600a831061028e5760010192915050565b6001600160a01b038216610f985760405162461bcd60e51b815260206004820181905260248201527f4552433732313a206d696e7420746f20746865207a65726f206164647265737360448201526064016103c1565b6000818152600260205260409020546001600160a01b031615610ffd5760405162461bcd60e51b815260206004820152601c60248201527f4552433732313a20746f6b656e20616c7265616479206d696e7465640000000060448201526064016103c1565b6000818152600260205260409020546001600160a01b0316156110625760405162461bcd60e51b815260206004820152601c60248201527f4552433732313a20746f6b656e20616c7265616479206d696e7465640000000060448201526064016103c1565b6001600160a01b038216600081815260036020908152604080832080546001019055848352600290915280822080546001600160a01b0319168417905551839291907fddf252ad1be2c89b69c2b068fc378daa952ba7f163c4a11628f55a4df523b3ef908290a45050565b8280546110d99061147a565b90600052602060002090601f0160209004810192826110fb5760008555611141565b82601f1061111457805160ff1916838001178555611141565b82800160010185558215611141579182015b82811115611141578251825591602001919060010190611126565b5061114d929150611151565b5090565b5b8082111561114d5760008155600101611152565b6001600160e01b0319811681146107ef57600080fd5b60006020828403121561118e57600080fd5b8135610bb081611166565b60005b838110156111b457818101518382015260200161119c565b838111156105f95750506000910152565b600081518084526111dd816020860160208601611199565b601f01601f19169290920160200192915050565b602081526000610bb060208301846111c5565b60006020828403121561121657600080fd5b5035919050565b80356001600160a01b038116811461123457600080fd5b919050565b6000806040838503121561124c57600080fd5b6112558361121d565b946020939093013593505050565b60008060006060848603121561127857600080fd5b6112818461121d565b925061128f6020850161121d565b9150604084013590509250925092565b6000602082840312156112b157600080fd5b610bb08261121d565b600080604083850312156112cd57600080fd5b6112d68361121d565b9150602083013580151581146112eb57600080fd5b809150509250929050565b634e487b7160e01b600052604160045260246000fd5b600067ffffffffffffffff80841115611327576113276112f6565b604051601f8501601f19908116603f0116810190828211818310171561134f5761134f6112f6565b8160405280935085815286868601111561136857600080fd5b858560208301376000602087830101525050509392505050565b6000806000806080858703121561139857600080fd5b6113a18561121d565b93506113af6020860161121d565b925060408501359150606085013567ffffffffffffffff8111156113d257600080fd5b8501601f810187136113e357600080fd5b6113f28782356020840161130c565b91505092959194509250565b60006020828403121561141057600080fd5b813567ffffffffffffffff81111561142757600080fd5b8201601f8101841361143857600080fd5b6107078482356020840161130c565b6000806040838503121561145a57600080fd5b6114638361121d565b91506114716020840161121d565b90509250929050565b600181811c9082168061148e57607f821691505b6020821081036114ae57634e487b7160e01b600052602260045260246000fd5b50919050565b6020808252602d908201527f4552433732313a2063616c6c6572206973206e6f7420746f6b656e206f776e6560408201526c1c881bdc88185c1c1c9bdd9959609a1b606082015260800190565b60008351611513818460208801611199565b835190830190611527818360208801611199565b01949350505050565b60208082526025908201527f4552433732313a207472616e736665722066726f6d20696e636f72726563742060408201526437bbb732b960d91b606082015260800190565b60208082526032908201527f4552433732313a207472616e7366657220746f206e6f6e20455243373231526560408201527131b2b4bb32b91034b6b83632b6b2b73a32b960711b606082015260800190565b6001600160a01b03858116825284166020820152604081018390526080606082018190526000906115fa908301846111c5565b9695505050505050565b60006020828403121561161657600080fd5b8151610bb08161116656fea2646970667358221220af7e403e1fd391d2c3f4d5a912d3d4256d339583661da873715a62768375bda764736f6c634300080d0033",
  "immutableReferences": {},
  "source": "// SPDX-License-Identifier: MIT\npragma solidity ^0.8.0;\n\nimport \"@openzeppelin/contracts/utils/Counters.sol\";\nimport \"@openzeppelin/contracts/token/ERC721/ERC721.sol\";\nimport \"@openzeppelin/contracts/token/ERC721/extensions/ERC721URIStorage.sol\";\n\ncontract RealEstate is ERC721URIStorage {\n    using Counters for Counters.Counter;\n    Counters.Counter private _tokenIds;\n\n    constructor() ERC721(\"Real Estate\", \"EST\"){}\n\n    function mint(string memory tokenURI) public returns (uint256) {\n        _tokenIds.increment();\n        uint256 newTokenId = _tokenIds.current();\n        _safeMint(msg.sender, newTokenId);\n        _setTokenURI(newTokenId, tokenURI);\n\n        return newTokenId;\n    }\n\n    function getTokenCount() public view returns (uint256) {\n        return _tokenIds.current();\n    }\n}\n",
  "sourcePath": "C:\\Users\\Umair\\Downloads\\my-realEstate-dapp-main\\pages\\contracts\\RealEstate.sol",
  "compiler": {
    "name": "solc",
    "version": "0.8.13+commit.abaa5c0e.Emscripten.clang"
  },
  "schemaVersion": "3.4.16",
  "updatedAt": "2024-03-17T02:24:55.988Z",
  "networkType": "ethereum",
  "devdoc": {
    "kind": "dev",
    "methods": {
      "approve(address,uint256)": {
        "details": "See {IERC721-approve}."
      },
      "balanceOf(address)": {
        "details": "See {IERC721-balanceOf}."
      },
      "getApproved(uint256)": {
        "details": "See {IERC721-getApproved}."
      },
      "isApprovedForAll(address,address)": {
        "details": "See {IERC721-isApprovedForAll}."
      },
      "name()": {
        "details": "See {IERC721Metadata-name}."
      },
      "ownerOf(uint256)": {
        "details": "See {IERC721-ownerOf}."
      },
      "safeTransferFrom(address,address,uint256)": {
        "details": "See {IERC721-safeTransferFrom}."
      },
      "safeTransferFrom(address,address,uint256,bytes)": {
        "details": "See {IERC721-safeTransferFrom}."
      },
      "setApprovalForAll(address,bool)": {
        "details": "See {IERC721-setApprovalForAll}."
      },
      "supportsInterface(bytes4)": {
        "details": "See {IERC165-supportsInterface}"
      },
      "symbol()": {
        "details": "See {IERC721Metadata-symbol}."
      },
      "tokenURI(uint256)": {
        "details": "See {IERC721Metadata-tokenURI}."
      },
      "transferFrom(address,address,uint256)": {
        "details": "See {IERC721-transferFrom}."
      }
    },
    "version": 1
  },
  "userdoc": {
    "kind": "user",
    "methods": {},
    "version": 1
  }
}